:020000040000FA
:1000000048170010C9010000D1010000D301000011
:10001000D5010000D7010000D90100000000000058
:10002000000000000000000000000000DB010000F4
:10003000DD01000000000000DF010000E101000020
:10004000E3010000E3010000E3010000E301000020
:10005000E3010000E3010000E3010000E301000010
:10006000E3010000E3010000E3010000E301000000
:10007000E3010000E3010000E3010000E3010000F0
:10008000E3010000E3010000E3010000E3010000E0
:10009000E3010000E3010000E3010000E3010000D0
:1000A000E3010000E3010000E3010000E3010000C0
:1000B000E3010000E3010000E3010000E3010000B0
:1000C000E3010000E3010000E3010000E3010000A0
:1000D000E3010000E3010000E3010000E301000090
:1000E000E3010000E30100003D0600001B070000E3
:1000F0002B070000E3010000F9070000E301000006
:10010000E3010000E3010000E3010000E30100005F
:10011000E3010000E3010000E3010000E30100004F
:10012000DD0A0000E301000000F002F800F03CF8F6
:100130000AA090E8000C82448344AAF10107DA4542
:1001400001D100F031F8AFF2090EBAE80F0013F058
:10015000010F18BFFB1A43F001031847741A00007F
:10016000941A0000103A24BF78C878C1FAD8520710
:1001700024BF30C830C144BF04680C607047000021
:100180000023002400250026103A28BF78C1FBD8A0
:10019000520728BF30C148BF0B6070471FB500F041
:1001A000A2F81FBD10B510BD00F0FCFD1146FFF711
:1001B000F5FF00F0D9F900F080F803B4FFF7F2FF83
:1001C00003BC00F089F8000009488047094800474F
:1001D000FEE7FEE7FEE7FEE7FEE7FEE7FEE7FEE7F7
:1001E000FEE7FEE704480549034A054B7047000057
:1001F000AF05000029010000481500104817001045
:10020000481500102DE9F04700239246DFF8A08042
:100210001A46994640F82290002408EB420650F80E
:100220002270355D641C022C50F825504FEAE57CA5
:1002300005EB9C4507EBA53540F82250EFDB9D42CE
:1002400000DD2B46521C0A2AE4DBFE2593FBF5F366
:10025000FE2B01DDFE2301E003B901235FF0000264
:1002600050F8224094FBF3F440F82240FE2C01DDCC
:1002700040F8225050F822408C54521C0A2AEFDBDE
:100280008AF80030BDE8F08710B50C4601462046DC
:1002900000F0AEFD3F2104F1080001F085F80020D8
:1002A00054F8301044F82010401C4028F8DB10BDF2
:1002B000BA1B00007047704770470446AFF30080D8
:1002C0002046FFF77AFF000000487047E414001052
:1002D00000487047E814001001491820ABBEFEE743
:1002E00026000200704710B5FFF7F2FF4FF0000143
:1002F000016010BD0000000000000000FFFFFFFFD4
:1003000010B58AB0854C00F0C3FB4FF47A7000F052
:10031000DBF9834800214160824A4B1E1360426929
:10032000C2F34112032AFAD100E002684269D207FF
:10033000FBD140697C4B0122100318607B4841616E
:100340007B48816841F480618160816841F04001AF
:100350008160816841F48031816002604FF0390032
:10036000009005A96846A0470AB010BD70B50646C2
:1003700000F010FA16F0FF0F55D1300E00256D4C2D
:10038000012808D0C6F30741022816D0042823D03C
:10039000082848D137E02078012801D0022842D12E
:1003A00000F076FB2078022801D100F05DF900F022
:1003B0006AFA257000F0EAF927E0207890BBA16086
:1003C00081B3022000F0D7FA00F068FB5A495B487D
:1003D00000F083F9022014E0207818BB481E014287
:1003E00021D1F9B1E56001E049086D1C0129FBD874
:1003F0000120E56000F0BFFA5149524800F06DF964
:100400000120207001E0FFF77BFF0324FF25E000BF
:1004100005FA00F13140C140C8B200F018FA641E7C
:10042000F5D570BDFFE700F0B1F90324FF2000F01F
:100430000EFA641EFAD5F4E770B50546084600F0DA
:1004400006FA0024285D00F002FA641C0A2CF9DB8D
:10045000E7E72DE9FF47DFF8DC8000244FF00109D2
:10046000D8F8082009FA04F0104222D03648D8F80B
:10047000045000EB4426C5F1800706EB8501BA0065
:1004800000F5805000F05CFC3048AA0000EB8700CB
:10049000314600F055FC2E492C48FFF7F5FE03AA23
:1004A00069462B48FFF7AEFE9DF80C106846FFF733
:1004B000C3FF641C082CD3DBFF2000F0C8F9BDE8A3
:1004C000FF872448016841F001010160016841F0A3
:1004D000020101602048016841F0010101600168EA
:1004E00041F00201016070471B48016821F00101E1
:1004F0000160016821F0020101601848016841F0C3
:10050000020101601648016841F0040101601548CC
:10051000016821F00301016030BF7047F11FFF1F28
:100520000080004080E100E084E100E000800140C4
:1005300078800440000000105D06000040420F007B
:100540009D0A0000A08601003C0000103C10001035
:100550003C12001000800350FC3F03500080034019
:1005600010ED00E03882044000F028F800F09FF819
:1005700000F07EF800F025FB00F08AFA00F08AF91E
:100580000B49D82008600B48016841F00401016064
:100590000948016821F004010160FFF792FF00F0B3
:1005A000CEF800F0F3F800BF00F052FBFCE7704714
:1005B0009C40044000800350FC3F03501E48D0F88C
:1005C000381221F02001C0F83812002202621146D0
:1005D00000BF491CC829FBDB01210164416442645E
:1005E0004164436CDB07FCD025238360D0F83832AC
:1005F00023F08003C0F83832C368DB07FCD0032344
:100600000367416742674167426FD207FCD000F140
:100610007800D0F8C02142F48062C0F8C021D0F840
:10062000C02142F48072C0F8C0210160816841F4A9
:1006300080318160704700000080044010B5634C39
:10064000206840F004002060FFF703FF206820F0DE
:10065000040020605E490120086010BD5C48022152
:10066000416001214160704759490020486070474E
:1006700010B572B65748016841F480710160544862
:1006800040F21F11C1604FF0000141604FF00301C3
:10069000416140F6C411816162B64FF02A0000F05A
:1006A0007DF80B21BDE810402A2000F083B84948AE
:1006B000016841F08001016047484FF04701C16087
:1006C0004FF0010141607047434A916889B29368D5
:1006D0005B1A9BB28342FAD3704710B572B63F4A99
:1006E00011603C490A6842F400720A603C4C4FF0C9
:1006F000020161604FF04701E1604FF00501616167
:10070000A0614FF02B0000F049F810212B2000F0E1
:1007100051F80120606062B610BD304810B5006825
:1007200080472F490120086010BD2848016881F0EA
:10073000040101602B4901200860FFF7D5BE10B508
:1007400072B62448016841F48061016025484FF089
:10075000000181602449C1604FF0050141614FF4FF
:10076000967181614FF02C0000F018F81E212C20AA
:1007700000F020F862B61D48016841F004010160F4
:100780001248016821F00401016010BD15490120E3
:1007900048607047134902204860704700F01F020C
:1007A0000121914040094FF0E02202EB8000C0F8A7
:1007B000001170474907090E002803DA00F00F0006
:1007C0000B4A00E00B4A815470470000FC3F035085
:1007D000000001408080044000C000401000001074
:1007E0000040014000800140FFA14A040080035006
:1007F00014ED00E000E400E0444910B58868444C82
:1008000000F00E0002280FD004280CD10A68A0685E
:10081000211D0A54401EA06005D50968002000F083
:1008200025FA0320A06010BDD4E9032082420BD03A
:10083000384A125C0A60401C5921B0FBF1F201FBFE
:1008400012002061002000E00120206010BD70B582
:100850002F4A116821B1002111602C49086070BD38
:10086000D2E903154B1C5924B3FBF4F604FB1633F1
:10087000AB42FDD0274B5854491CB1FBF4F004FBAC
:100880001010D06070BD22480021C16001610121BB
:100890000160704710B572B61F49086840F4805077
:1008A00008601B4A4FF003044FF00003C2E9024303
:1008B0004FF0010013611060184A106050608861A9
:1008C00012484FF08301C1604FF010018162436014
:1008D0004FF027010160C16821F08001C1604FF035
:1008E0000701816041694169C1F341110329FAD1CE
:1008F00000E001684169C907FBD144600849202034
:10090000087008494002086062B610BD00800040CF
:10091000140000104414001080800440A4400440DF
:100920002EE400E004E100E0B349CA6802F01202DC
:10093000022AFAD18860C86800F014000428FAD1AD
:1009400088687047AD48C16F41F40061C1674FF0DE
:100950000101C0F89010016841F007010160A6484C
:100960004FF087010160016941F0140101614FF00E
:100970000201416070472DE9F04188B004461C2215
:100980009FA1684600F0DCF90021A44A084600BF98
:1009900002F82100491C0929FADBFFF7D3FFA0491F
:1009A0000220012C0C7000D104209E4E40F08000EB
:1009B0008DF80300306820F0200030609A4C2068E9
:1009C00040F004002060206840F0800020604FF478
:1009D0007A652846FFF778FE206820F080002060C6
:1009E0002846FFF771FE206840F0800020602068F4
:1009F00020F0040020604FF4C8773846FFF764FE0B
:100A00001120FFF791FF3846FFF75EFE206840F0A7
:100A1000040020603846FFF757FE206820F00400ED
:100A2000206000254FEA0D0818F80500FFF77CFF4D
:100A30003846FFF749FE6D1C1C2DF5DB206840F0A1
:100A4000040020603846FFF73FFE206840F00400B5
:100A50002060206820F0040020603846FFF734FE54
:100A60001020FFF761FF3846FFF72EFE206840F0A8
:100A7000040020603846FFF727FE306840F0200071
:100A800030604FF44870FFF71FFE08B0BDE8F081FA
:100A90006448016821F020010160704763480168E3
:100AA00041F04001016072B661494FF0807008600A
:100AB0006048016821F020010160416821F02001B7
:100AC0004160816821F020018160C16821F020012E
:100AD000C1604FF02001016162B67047F0B5564C1D
:100AE000514F89B04D482060396821F004013960C8
:100AF00000234149FF258D60CA6802F01402042AD0
:100B0000FAD18E682268D6708D60CE6806F0140621
:100B1000042EFAD18E6896708D60CE6806F01406A9
:100B2000042EFAD18E685670121D5B1C2260092BB0
:100B3000E1DB396841F0040139603949097801295C
:100B400002D0022912D02DE03C49096800EB810057
:100B5000001D2060C078FFF77AFE20688078FFF7DC
:100B600076FE20684078FFF772FE1BE06946001DA4
:100B700000F096F8B0B1334A314C002011686B4652
:100B800004EB402753F82060401C761047F82160A2
:100B90000828F5DB491CC81701EB506020F07F00E6
:100BA000081A10602348C56109B0F0BD1248FF2142
:100BB0008160C16801F014010429FAD18068C0B2D3
:100BC0007047214810B50121C0F8B01001670166D7
:100BD00041661022C26117490B6843F004030B60A1
:100BE00042641A4B1C6844F020041C6002650868CB
:100BF00040F08000086010BD000004400480044004
:100C000040197F8610DC0310101010101010100017
:100C100000FF0200FE06000000020AE39D1400101F
:100C200000000010FC3F0250FC3F00508080044058
:100C300004E100E000800050280000100C000010CB
:100C40003C000010040000100040044000800250EE
:100C500010B5124C2068C00707D0201D0068FFF7B0
:100C600085FB206820F00100206010BD2DE9F041D7
:100C7000064601240F46B440084D02E06420FFF709
:100C800023FD28680442F9D10448001D40F826706D
:100C9000286804432C60BDE8F08100002C0000109F
:100CA0002DE9F05F244C05460F464FF07E56DFF8E5
:100CB0008CB03146206800F037FD2060616800F09C
:100CC000D5FED4E9000127D200F002FF804601469C
:100CD0002060304600F0FCFEC14682460024D84623
:100CE00055F8240000F0AAFD514600F0F3FD064639
:100CF00058F8240000F0A2FD494600F0EBFD314613
:100D000000F012FD00F07EFD47F82400641C082C62
:100D1000E6DB0120BDE8F09F00F0DAFEB04208DA21
:100D20000020594655F8202041F82020401C082872
:100D3000F8DB0020EEE7000034000010C4140010BF
:100D400010B5203AC0F00B80B1E81850203AA0E866
:100D50001850B1E81850A0E81850BFF4F5AF5FEA9A
:100D6000027C24BFB1E81850A0E8185044BF18C94D
:100D700018C0BDE810405FEA827C24BF51F8043BF4
:100D800040F8043B08BF7047D20728BF31F8023B48
:100D900048BF11F8012B28BF20F8023B48BF00F8DC
:100DA000012B70477546FFF78FFAAE46050069467E
:100DB000534620F00700854618B020B5FFF712FA19
:100DC000BDE820404FF000064FF000074FF000084C
:100DD0004FF0000B21F00701AC46ACE8C009ACE8CD
:100DE000C009ACE8C009ACE8C0098D4670470000F6
:100DF0002DE9F04F4FF080025FF0000EF4465305EE
:100E000011EBCE0EDEF80450DEF800401EEB020EB1
:100E1000DEF80490DEF800801EEB020EDEF80470AF
:100E2000DEF800601EEB020EDEF804B0DEF800A073
:100E30001EEB020ED044D944A8EB4A0AA9EB4B0B97
:100E40004FEAA4044FEAA50504EBA60405EBA705A9
:100E5000A4EB6606A5EB670704EBA80405EBA90560
:100E6000A4EB6808A5EB690906EBAB06A7EBAA079C
:100E7000A6EB6B0B07EB6A0A456040F8084B47602E
:100E800040F8086BC0F8049040F8088BC0F804A044
:100E900040F808BB1CEB030C9CFAACFEB0D1A0EBF5
:100EA00082014FF02003520908BFBDE8F08F85A0F2
:100EB00006B403EB430C6144A2F5803202EB4332EB
:100EC0004D680C68C91AD0F804B050F808AB85FB1F
:100ED0000AEC85FB0B5E84FB0B5BBCEB0B0B84FB12
:100EE0000A5A1AEB0E0A4D680C68C91AD0F8049019
:100EF00050F8088B85FB08EC85FB095E84FB0959DB
:100F0000BCEB090984FB085818EB0E084D680C6807
:100F1000C91A476850F8086B85FB06EC85FB075E2D
:100F200084FB0757BCEB070784FB065616EB0E063F
:100F30004D680C680031D044D944A8EB4A0AA9EBAB
:100F40004B0B4FEAA4044FEAA50504EB660405EB3E
:100F50006705A4EB0606A5EB070704EB680405EBA1
:100F60006905A4EB0808A5EB090906EB6B06A7EBDE
:100F70006A07A6EB0B0B07EB0A0A4D600C60C91859
:100F80004F600E60C918C1F80490C1F80080C918FC
:100F9000C1F804A041F808BBB2F5803290DA03EB47
:100FA000430C6144A2F101025FEA024E18BFA0EBBC
:100FB0000C0083D106BC4FEA830392087FF478AF1C
:100FC00041F2AC2BC0F2000B884640F2F819C14444
:100FD000D8F8045058F8087B17EB050148F8081CAE
:100FE000002148F8041C7F1BC9F8087040F21F005C
:100FF000DBF804305BF8084BD8F8045058F8087B4D
:10100000D9F8046059F808296FF0004CACEB640C77
:1010100087FB04E14FEAA10185FB03EAA1EBAA01EA
:1010200082FB0CEA01EB6A0186FB03EAA1EBAA0151
:101030004FEA810148F8081C85FB04E14FEAA10151
:1010400087FB03EA01EBAA0182FB03EAA1EBAA01F9
:1010500086FB0CEAA1EB6A014FEA810148F8041C07
:1010600082FB04E14FEAA10186FB03EA01EBAA013E
:1010700087FB0CEA01EB6A0185FB03EA01EBAA019D
:101080004FEA8101C9F8081086FB04E14FEAA1018B
:1010900082FB03EAA1EBAA0187FB03EA01EBAA01A9
:1010A00085FB0CEAA1EB6A014FEA8101C9F80C103B
:1010B00001389DD1D8F80450C5F10005C8F8045096
:1010C000BDE8F08FFFFFFF7F00000000FFFFFF7F04
:1010D00000000000FFFFFF7F000000004DC5FB3057
:1010E0003DAF41763DAF41764DC5FB309A79825A8E
:1010F0009A79825A66867DA59A79825A9A79825A15
:101100009A79825A00000000FFFFFF7FC350BE891A
:10111000B33A04CF4DC5FB303DAF417666867DA521
:101120009A79825AFFFFFF7F00000000FFFFFF7FD8
:1011300000000000FFFFFF7F000000005B057D7ADC
:101140005E0C28258F36627F5ED38B0C405F8A7DD4
:101150003CB8F818A4986D6AE7EC1C47405F8A7D9C
:101160003CB8F8183DAF41764DC5FB3094CC3351B7
:10117000AC01F2625B057D7A5E0C2825A4986D6A4D
:10118000E7EC1C474DC5FB303DAF41763DAF4176A6
:101190004DC5FB309A79825A9A79825A5ED38B0C6C
:1011A0008F36627FC6CBE27070BA563CE7EC1C47C4
:1011B000A4986D6AC44707E7405F8A7DA4986D6A6A
:1011C000E7EC1C474DC5FB303DAF41769045A9C3C8
:1011D000C6CBE270AC01F26294CC33513CB8F81843
:1011E000405F8A7D66867DA59A79825A9A79825A6D
:1011F0009A79825A00000000FFFFFF7F3A341D8F6A
:1012000070BA563C94CC3351AC01F262C44707E744
:10121000405F8A7DC0A075823CB8F818E7EC1C4797
:10122000A4986D6AB33A04CF3DAF417671C99D80F1
:10123000A22C74F370BA563CC6CBE2701913E3B813
:10124000A4986D6AC350BE89B33A04CF4DC5FB3034
:101250003DAF417666867DA59A79825A54FE0D9DF2
:101260006C33CCAE5E0C28255B057D7A5C6792956D
:10127000E7EC1C471913E3B85C6792953CB8F81883
:10128000405F8A7DC350BE894DC5FB30A2F3D7DADB
:10129000A5FA82855ED38B0C8F36627FC0A07582E3
:1012A0003CB8F818FFFFFF7F000000808426B87963
:1012B00072782780A22C747371C99D8091EF376D6D
:1012C00004AA6281C4470767C0A075828506E660EC
:1012D0001204D683A2F3D75AA5FA828515CBE0541F
:1012E000EC7B7B87B33A044FC350BE89ECDF4549A2
:1012F0002F144A8C9045A9433A341D8F9BE1313E0F
:10130000ECF235921913E3385C6792950C20C033E8
:10131000E07E30996C33CC2E54FE0D9D2E5B0A2A54
:10132000768328A166867D2566867DA5768328211D
:101330002E5B0AAA54FE0D1D6C33CCAEE07E301934
:101340000C20C0B35C6792151913E3B8ECF23512A8
:101350009BE131BE3A341D0F9045A9C32F144A0CAE
:10136000ECDF45C9C350BE09B33A04CFEC7B7B0721
:1013700015CBE0D4A5FA8205A2F3D7DA1204D6037E
:101380008506E6E0C0A07502C44707E704AA62012B
:1013900091EF37ED71C99D00A22C74F3727827008C
:1013A0008426B8F9000000002DE93040AFF2880E25
:1013B00030C884FB044385FB0525A4186B411BD072
:1013C000B3FA83F505F0FE05AB40C5F12002D44029
:1013D00044EA0304230E5EF82320C4F30F2314030E
:1013E000120D5A4314EB12146D08EC4040F8084CEF
:1013F0000139DDD1BDE83080B4FA84F505F0FE0591
:10140000AC40230E5EF82320C4F30F231403120D07
:101410005A4314EB12146D08EC40240C40F8084CAD
:101420000139C5D1BDE83080020008FFF20F18FD78
:10143000C31F28FB752F48F9093F88F7814EA8F58F
:10144000DB5DF8F31A6D38F23D7C88F0458BF8EEE1
:10145000339A58ED08A9B8EBC3B738EA65C6B8E8BF
:10146000F0D428E762E3B8E5BDF148E40100E9E221
:101470002F0E89E1461C39E0492AC9DE353889DD5D
:101480000D4639DCD053F9DA7F61C9D91B6F79D8A1
:10149000A27C59D7178A19D67897F9D4C7A4D9D37B
:1014A00004B2B9D22FBF99D148CC89D050D969CFD5
:1014B00046E669CE2CF359CD01005ACCC60C4ACB76
:1014C0007A195ACA1F264AC9B4325AC8393F6AC75C
:1014D000AF4B8AC616589AC56F64AAC4B970BAC30E
:1014E000F47CDAC221890AC241951AC152A14AC0CC
:1014F00056AD6ABF4CB99ABE35C5CABD11D1FABC4A
:10150000E0DC2ABCA2E86ABB57F4AABA0100CBB956
:101510009D0B1BB92E175BB8B3228BB72B2EEBB6E6
:1015200098392BB6FA446BB55050ABB49A5B0BB4F8
:10153000DA664BB30E72ABB2387DFBB156885BB145
:101540006B939BB0749EFBAF73A95BAF68B4ABAEFB
:1015500052BF1BAE33CA6BAD09D5CBACD5DF3BACAC
:1015600098EA9BAB51F50BAB01005CAAA60ADCA97B
:1015700043153CA9D61FACA8602A1CA8E1348CA74F
:10158000593FFCA6C8497CA62E54ECA58C5E5CA5F0
:10159000E168CCA42D734CA4717DBCA3AC873CA3A3
:1015A000DF91BCA20A9C2CA22DA6ACA147B02CA115
:1015B00059BABCA064C43CA067CEAC9F61D84C9F14
:1015C00055E2BC9E40EC4C9E24F6CC9D00005D9DF7
:1015D000D509ED9CA3136D9C691DFD9B28278D9B50
:1015E000E0300D9B903AAD9A3A442D9ADC4DCD995E
:1015F00078574D990C61ED989A6A7D9821740D98F1
:10160000A17DAD971B873D978E90CD96FA996D96EB
:1016100060A30D96C0AC9D9519B62D956BBFDD945A
:10162000B8C86D94FED10D943EDB9D9378E43D9354
:10163000ABEDED92D9F67D9200002E922209BE917B
:101640003E125E91531B0E916324AE906D2D5E9001
:101650007236EE8F703FAE8F6A483E8F5D51EE8ED0
:101660004B5A8E8E33633E8E166CDE8DF3748E8DE8
:10167000CB7D3E8D9E86DE8C6B8F8E8C33982E8C30
:10168000F5A0EE8BB3A98E8B6BB23E8B1EBBEE8AA0
:10169000CCC38E8A74CC4E8A18D5FE89B7DDAE894C
:1016A00051E64E89E5EE0E8975F7BE8800006F8819
:1016B00086082F880811CF8784198F87FC213F87E0
:1016C0006F2AEF86DD32AF86473B5F86AC430F86DD
:1016D0000C4CCF8568547F85BF5C3F851265EF84D5
:1016E000606DAF84AA756F84F07D0F843086DF83D0
:1016F0006D8E8F83A5964F83D99E0F8309A7BF82D6
:1017000034AF7F825BB73F827EBFFF819DC7AF81D1
:10171000B7CF7F81CED72F81E0DFEF80EEE7AF80BC
:10172000F8EF6F80FEF72F8090EA010F48BF81F03D
:10173000004100F1D481421A3CBF801A89184FEA57
:10174000D0524FF07F4C1CEA410FA2EBD15318BF8F
:101750009CEA026F00F03B804FF0004C4CEA002006
:101760004CEA012121FA03FC10EB0C0C1ED202F111
:10177000FF325FEA1C2040EBC25038BF70471CF0BC
:101780007F0F4FEA400C18BFBCF17F4F38BF704746
:10179000C3F12003994008BF20F00100BCF17F4F46
:1017A00038BF7047A0F1C04000F05BB94FEA3C0081
:1017B000000A40EBC25028BF1CF0FF0F4FEA400C5C
:1017C000E6D018BFBCF17F4F38BF7047EAE79CEA0C
:1017D000026F05D010EA5C0F08BF00F000407047B0
:1017E00010B500F0F8F800BF64FBBE3E401058BFD3
:1017F000C0F14040491058BFC1F140418142EFF370
:101800000080704741000B0ED3F19E0208D950F4BE
:1018100000034FEA032323FA02F048BF4042704717
:1018200010B500F0D8F800BF49922480002070471E
:101830006FF0004282EA20007047000010F0004183
:1018400048BF4042B0FA80F310FA03F2C3F19D039F
:101850000BD051EAC35101EB1220530638BF704739
:1018600000F1010008BF20F00100704750EA010CB0
:1018700000F113801CF5000F58BFBCF5000F01D418
:101880008842704707D710F5000F58BF11F5000FB9
:1018900015D488427047894270471CF5000F04D563
:1018A000BCF5000FF7D5814270474FF0807C1CEBF0
:1018B000400F38BF1CEB410F01D28142704710B579
:1018C00000F089F8922449004FF000504FF0805109
:1018D000FFF78CBF4FF47F0C1CEAD0121EBF1CEA2E
:1018E000D11392EA0C0F93EA0C0F00F0478090EAB4
:1018F000010F48BF42F480724FF0004C4CEA0020C8
:101900004CEA012102EB0302A0FB0113A2F5000245
:10191000002918BF43F001035B0028BF4FEA3303DF
:1019200042EB22425FEA132C4CEBC2502EBFBCEBC1
:10193000436FB2F57C0F70474FEA036CBCF1004F68
:1019400008BF20F00100B2F57C0F38BF70470BD5FF
:1019500082F0FF0212F5803FC8BF704700F1C0401F
:10196000D8BF00F00040704700F5000C5FEA4C0C57
:1019700048BF7047B0F1C04000F073B890EA010F63
:101980000CEAD11348BF42F48072624538BF634508
:1019900004D280EA010000F00040704710B500F06A
:1019A0001AF800BF8900013E00F007B800F009B83E
:1019B0005FEA410C5FEA1C6C08D080EA010000F08D
:1019C00050B85FEA400C5FEA1C6CF6D14FF0004063
:1019D000A0F5800070470EF1020E2EF0030E5EF8A7
:1019E000044B244204D44FEA4102B2F17F4F11D894
:1019F0004FEA4003B3F17F4F0CD80ED14FEAD07CB1
:101A0000B2F17F4F0CEB4C0C0CF1020C08BF4CEB0D
:101A1000D17C04E04FF0080C01E04FEAD17C0CEBE4
:101A20004C0324FA03F404F00704B4F1040C06D2C6
:101A30000EEB840CBDE810404CF0010C6047DFE871
:101A40000CF0070802024FF00040A0F5800010BD26
:101A50000846420018BFD2F1807288BF00F00040F3
:101A600010BDFF2141EAD050C005704751EA000C7B
:101A700000F113801CF5000F58BFBCF5000F01D416
:101A80008142704707D711F5000F58BF10F5000FBE
:101A900015D481427047894270471CF5000F04D568
:101AA000BCF5000FF7D5884270474FF0807C1CEBE7
:101AB000410F38BF1CEB400F01D28842704780EACB
:101AC000010081EA000180EA0100FFF7F8BE000092
:101AD00090EA010F48BF81F000413FF52CAE421A59
:101AE00004D882F00042A0EB020011444FEAD05229
:101AF0004FF07F4C1CEA410FA2EBD15318BF9CEA78
:101B0000026F4AD04FF0004C4CEA00204CEA012111
:101B100021FA03FCB0EB0C0C0FD412F0FE0F36D000
:101B20005FEA4C001DD5001240EBC25038BF704731
:101B30001CF03F0F18BF70470BE0A2F101025FEAF3
:101B40001C2040EBC25038BF70471CF07F0F18BFFD
:101B50007047C3F12003994014BF401E20F00100DC
:101B6000704780084FEA122308BF7047B0FA80FC24
:101B7000A2EB0C02CCF1280C60FA0CF093EA122FC5
:101B800004BF00EBC25070474FEAC3707047130A9E
:101B90005FEADC1008BF7047F6E79CEA026F04D0EA
:101BA00010EA5C0F08BF0020704710B5FFF713FF65
:101BB00040DFF63E81F0004070470203040506074F
:101BC00008090B0C0D0E0F1011121315161700003B
:101BD000F01B0000000000103C0000006401000049
:101BE0002C1C00003C0000100C17000080010000BD
:101BF00000000000000000000000000000000000E5
:101C000000000000010000000000000000000000D3
:101C100000000000000000000000000000000000C4
:0C1C2000000000000000000000802541D2
:04000005000001C92D
:00000001FF
