:020000040000FA
:1000000048170010C9010000D1010000D301000011
:10001000D5010000D7010000D90100000000000058
:10002000000000000000000000000000DB010000F4
:10003000DD01000000000000DF010000E101000020
:10004000E3010000E3010000E3010000E301000020
:10005000E3010000E3010000E3010000E301000010
:10006000E3010000E3010000E3010000E301000000
:10007000E3010000E3010000E3010000E3010000F0
:10008000E3010000E3010000E3010000E3010000E0
:10009000E3010000E3010000E3010000E3010000D0
:1000A000E3010000E3010000E3010000E3010000C0
:1000B000E3010000E3010000E3010000E3010000B0
:1000C000E3010000E3010000E3010000E3010000A0
:1000D000E3010000E3010000E3010000E301000090
:1000E000E3010000E301000085060000670700004F
:1000F000E3010000E3010000B1070000E30100009C
:10010000E3010000E3010000E3010000E30100005F
:10011000E3010000E3010000E3010000E30100004F
:10012000E50B0000E301000000F002F800F03CF8ED
:100130000AA090E8000C82448344AAF10107DA4542
:1001400001D100F031F8AFF2090EBAE80F0013F058
:10015000010F18BFFB1A43F001031847B820000035
:10016000D8200000103A24BF78C878C1FAD85207C6
:1001700024BF30C830C144BF04680C607047000021
:100180000023002400250026103A28BF78C1FBD8A0
:10019000520728BF30C148BF0B6070471FB501F040
:1001A0007CFF1FBD10B510BD00F083F81146FFF7AE
:1001B000F5FF00F0CDF900F0D1FE03B4FFF7F2FF38
:1001C00003BC00F0D9FE00000948804709480047F9
:1001D000FEE7FEE7FEE7FEE7FEE7FEE7FEE7FEE7F7
:1001E000FEE7FEE704480549034A054B7047000057
:1001F000A305000029010000481500104817001051
:1002000048150010F0B503460C46154600210020A5
:1002100019E0002643F8206000220BE053F820602C
:10022000214F07EB4007BF5C53F827703E4443F86B
:100230002060521C022AF1DB53F820608E4201DD5F
:1002400053F82010401C0A28E3DBFE2691FBF6F150
:10025000FE2900DDFE2100200AE053F8206096FB15
:10026000F1F62654265CFE2E01DDFE262654401CA7
:100270000A28F2DB2970F0BD70B506460C463146FF
:10028000204600F081FE3F2104F1080001F058F9FA
:10029000002505E0680054F8200044F825006D1C96
:1002A000402DF7DB70BD0000FE2100007047704755
:1002B0007047754600F058FEAE4605006946534645
:1002C00020F00700854618B020B5FFF78BFFBDE88A
:1002D00020404FF000064FF000074FF000084FF0AD
:1002E000000B21F00701AC46ACE8C009ACE8C0093E
:1002F000ACE8C009ACE8C0098D467047FFFFFFFFBE
:1003000010B58AB0824C00F022FC4FF47A7000F0F5
:10031000F9F900207F494860401E7F49086000BF0E
:100320007C48406900F060006028F9D101E079481C
:1003300000687848406910F0010FF8D175484069AD
:100340007648006840F480607549C1F8800008462E
:10035000D0F8800040F04000C1F880000846D0F896
:10036000800040F480306D4908604FF001006C4916
:1003700088674FF03900059001A905A8A0470AB089
:1003800010BD70B5054615F0FF0F00D070E0280EC7
:10039000012806D002281CD0042833D0082856D1C2
:1003A00052E060480078012803D05E4800780228B7
:1003B0000AD100F0CCFB5B480078022801D100F0A4
:1003C0006EF900F061FA00E052E000205549087033
:1003D0003EE05448007800B14AE0C5F30740524976
:1003E00008600846006800B942E0022000F006FB01
:1003F00000F0B4FB4D494E4800F08FF90220494906
:10040000087025E04748007800B131E0C5F30746A1
:10041000701E304200D106B92AE00020454908602C
:1004200005E0760843480068401C42490860012EF8
:10043000F7D8012000F0E2FA3F49404800F06DF99A
:1004400001203849087003E0FFF75AFF00E00FE091
:1004500000BF032409E0E200FF2191402940E200AF
:10046000D140C8B200F0E9F9641E002CF3DA70BD87
:10047000032403E0FF2000F0E0F9641E002CF9DA09
:1004800000BFF4E770B505460E46304600F0D5F9DA
:10049000002403E0285D00F0D0F9641C0A2CF9DB8D
:1004A00070BD7FB500242CE00120A0401E490968E2
:1004B000084225D022480568224800EB442000EB82
:1004C0008501C5F1800082001F4800F015FDAA00DB
:1004D0001C4B03EB4421C5F180031B4E06EB83004C
:1004E00000F00AFD19493046FFF7C6FE03AA694627
:1004F0001648FFF787FE9DF80C106846FFF7C2FF0D
:10050000641C082CD0DBFF2000F097F97FBD0000B1
:10051000F11FFF1F0080004080E100E08080044068
:10052000008004400C00001004000010930600003E
:1005300040420F00080000105D0B0000A086010083
:10054000000000103C0000103C1000103C12001095
:1005500000F02EF800F0C7F800F0A5F800F0E0FB7E
:1005600000F0F5FA00F099F9D8200E4908600E481D
:10057000006840F001000C4908600C48006820F059
:1005800001000A4908600BE00848006880F001009B
:100590000649086000F01AFC4EF6602000F0B2F840
:1005A000F2E770478440044000800350FC3F035052
:1005B0002A49096821F02001294AC2F838124FF06F
:1005C00000011162084601E000BF401CC828FBDBA7
:1005D0000121234A116451640021516401215164B5
:1005E00000BF1F49496C11F0010FFAD025211C4AA8
:1005F00091601A49096821F08001C2F8381200BFE1
:100600001749C96811F0010FFAD00321144A116784
:1006100001215167002151670121516700BF104935
:10062000496F11F0010FFAD00C49096841F480615B
:100630000B4AC2F838121146D1F8381241F48071D1
:10064000064A11604FF00101054A91671146D1F841
:10065000801041F48031C2F8801070473882044025
:100660000080044010B5002807DA4A07140E484AF3
:1006700000F00F031B1FD45403E04A07130E454A32
:10068000135410BD10B5FFF70CFF0120424908605C
:1006900010BD02204049486001204860704700209A
:1006A0003D494860704710B572B63C48006840F458
:1006B00080703B49C1F8800040F21F103649C86085
:1006C0004FF0000048604FF00300486142F28D0097
:1006D00088614FF02A0000F04EF818212A20FFF719
:1006E000C1FF62B610BD2D48006840F080002C4963
:1006F000C1F880004FF047002A49C8604FF0010060
:1007000048607047274A926891B200BF254A9268B4
:10071000521A92B28242F9DB704770B504460D4618
:1007200072B6214805601D48006840F400701C49FD
:10073000C1F880004FF002001C4948604FF04700AC
:10074000C8604FF005004861084684614FF02B00F7
:1007500000F011F80F212B20FFF784FF012013492F
:10076000486062B670BD10B50F4800688047012030
:100770000E49086010BD00F01F020121914042099E
:100780004FF0E02303EB8202C2F800117047000033
:1007900018ED00E000E400E000000140808004402B
:1007A0000080044000C000401000001000400140E4
:1007B00010B56D488068C4B204F00E00022802D063
:1007C000042838D11FE069480068694909688842EF
:1007D00015D0684866490968405C63490860644808
:1007E0000068401C624908605921B0FBF1F201FB2E
:1007F00012005F49086000205F49086002E00120A4
:100800005D49086017E058480068C1B25B4802685B
:100810000068401E594B18605948815418460068BA
:10082000002807DA56480168002000F0E0FA0320AB
:100830005249086000BF00BF10BD4F49096829B187
:1008400000214D4A1160484908601CE000BF47493B
:100850000968491C5922B1FBF2F302FB1311444A07
:1008600012689142F3D04349404A126888543F4984
:100870000968491C3D4A11605922B1FBF2F302FBA1
:1008800013113A4A1160704700203849086038490E
:100890000860012038490860704710B572B63948C1
:1008A000006840F480503849C1F880004FF00300E0
:1008B000324908604FF000002C4908602C4908605C
:1008C0004FF001002C4908603049086001F1040133
:1008D00008602F4908604FF083002349C8604FF03B
:1008E000100088624FF0000048604FF02700086059
:1008F0000846C06820F08000C8604FF0070088609C
:100900000846406900BF1848406900F06000602850
:10091000F9D101E0144800681348406910F0010F54
:10092000F8D10320104948602E201F21002807DA43
:100930004A07140E174A00F00F031B1FD45403E09C
:100940004A07130E144A135400BF2E2000F01F0252
:100950000121914042094FF0E02303EB8202C2F8EB
:10096000001100BF62B610BD0080004020000010E2
:100970002400001044140010140000101C0000108B
:10098000180000108080044000800440A44004400F
:100990009880044018ED00E000E400E000BFF34957
:1009A000C96801F012010229F9D1F049886000BF3D
:1009B000EE49C96801F014010429F9D1EB498968AD
:1009C0007047EB48006840F40060EA49C1F88000D5
:1009D0004FF00100C1F894000846406840F007005D
:1009E00048604FF08700E14908600846006940F020
:1009F000140008614FF002004860704770B588B07D
:100A000005461C22DCA101A800F076FA002404E0CF
:100A10000020E04901F82400641C092CF8DBFFF7F2
:100A2000D0FF0226DC480570012D01D1042602E02A
:100A3000022D00D1022646F080008DF80700D7482D
:100A4000006820F02000D5490860D548006840F0D3
:100A50000400D34908600846006840F08000086040
:100A60004FF47A60FFF74EFECD48006820F080001A
:100A7000CB4908604FF47A60FFF744FEC84800682D
:100A800040F08000C64908600846006820F0040075
:100A900008604FF4C870FFF735FE1120FFF77EFFA6
:100AA0004FF4C870FFF72EFEBD48006840F0040008
:100AB000BB4908604FF4C870FFF724FEB8480068CF
:100AC00020F00400B6490860002408E001A9085D90
:100AD000FFF764FF4FF4C870FFF714FE641C1C2C72
:100AE000F4DBAF48006840F00400AD4908604FF403
:100AF000C870FFF707FEAA48006840F00400A84944
:100B000008600846006820F0040008604FF4C870D0
:100B1000FFF7F8FD1020FFF741FF4FF4C870FFF713
:100B2000F1FD9F48006840F004009D4908604FF4C3
:100B3000C870FFF7E7FD9948006840F0200097492A
:100B400008604FF44870FFF7DDFD08B070BD9348B2
:100B5000006820F0200091490860704710B5844873
:100B6000006840F040008349C1F8800072B64FF041
:100B7000380000F01F024FF0010101FA02F14FEAC4
:100B800050124FF0E02303EB8202C2F8001100BFC5
:100B90004FF01A01002807DA4A07140E814A00F0C4
:100BA0000F031B1FD45403E04A07130E7E4A13544D
:100BB00000BF7E48006820F020007C49086008469D
:100BC000406820F0200048600846806820F020003F
:100BD00088600846C06820F02000C86020200861B6
:100BE00062B610BD10B588B06A48714908606C489B
:100BF000006820F004006A490860002432E0FF2009
:100C00005A49886000BF5948C06800F014000428A1
:100C1000F9D15648806866490968C870FF20534971
:100C2000886000BF5148C06800F014000428F9D162
:100C30004E4880685E4909688870FF204B4988608B
:100C400000BF4A48C06800F014000428F9D14748A2
:100C50008068C1B2564802680068001D544B186095
:100C60005170641C092CCADB4D48006840F0040038
:100C70004B49086048480078012816D145494D483D
:100C80000068401C01EB8000494908600968C87889
:100C9000FFF7D3FD464909688878FFF7CEFD444940
:100CA00009684878FFF7C9FD27E03B48007802282B
:100CB00023D169463748001D00F0B6F870B1002412
:100CC0000AE05DF8240041103B4800EB44203B4A19
:100CD000126840F82210641C082CF2DB37480068C8
:100CE000401C364908600868C11700EB5161C91102
:100CF000A0EBC111314A116000BFFF202B49C86130
:100D000008B010BDFF21194A916000BF1749C9689A
:100D100001F014010429F9D114498968C8B2704757
:100D200001202749086027490867086648664FF090
:100D30001000C8611D48006840F004001B490860AD
:100D40004FF010001F4948641F48006840F0200021
:100D50001D4908604FF010001A49086513480068E3
:100D600040F0800011490860704700000000044016
:100D7000808004400080044040197F8610DC03100E
:100D8000101010101010100000FF0200FE060000EE
:100D900000020AE39D1400100C000010FC3F0250FA
:100DA000FC3F005018ED00E000E400E0008000503F
:100DB00028000010080000103C0000100000001087
:100DC000B0400440004004400080025010B5144878
:100DD000006810F0010F09D012490868FFF7D1FA36
:100DE0000F48006820F001000D49086010BD70B583
:100DF00004460D4602E06420FFF784FC0120A04079
:100E0000074909680842F6D1064840F824500120F5
:100E1000A0400349096808430149086070BD00000B
:100E20002C000010300000102DE9F05F81468B4649
:100E30004FF07E512C48006800F092FF2A4908606C
:100E40002A4801682848006801F033F93CD2274855
:100E500001682548006801F05DF9234908600846EB
:100E6000006800F051FF06460022214B00F056FEBC
:100E7000044600F025FD82464FF000081EE059F8B8
:100E8000280000F0F7FF0746514601F03FF80546FD
:100E9000184951F8280000F0EDFF07461248016894
:100EA000384601F033F80646294600F059FF04465B
:100EB00000F0C4FF4BF8280008F10108B8F1080F52
:100EC000DDDB0120BDE8F09F4FF0000806E059F897
:100ED0002800084941F8280008F10108B8F1080F76
:100EE000F5DB0020EEE700003400001038000010B1
:100EF0000000F03FC414001010B5203AC0F00B8081
:100F0000B1E81850203AA0E81850B1E81850A0E80D
:100F10001850BFF4F5AF5FEA027C24BFB1E8185067
:100F2000A0E8185044BF18C918C0BDE810405FEAD7
:100F3000827C24BF51F8043B40F8043B08BF704753
:100F4000D20728BF31F8023B48BF11F8012B28BF58
:100F500020F8023B48BF00F8012B70470446AFF36E
:100F600000802046FFF729F900487047E41400107C
:100F700000487047E814001001491820ABBEFEE796
:100F800026000200704700002DE9F04F4FF080026C
:100F90005FF0000EF446530511EBCE0EDEF8045060
:100FA000DEF800401EEB020EDEF80490DEF8008052
:100FB0001EEB020EDEF80470DEF800601EEB020E7F
:100FC000DEF804B0DEF800A01EEB020ED044D944D7
:100FD000A8EB4A0AA9EB4B0B4FEAA4044FEAA5057C
:100FE00004EBA60405EBA705A4EB6606A5EB6707D3
:100FF00004EBA80405EBA905A4EB6808A5EB6909B7
:1010000006EBAB06A7EBAA07A6EB6B0B07EB6A0A8E
:10101000456040F8084B476040F8086BC0F8049002
:1010200040F8088BC0F804A040F808BB1CEB030C88
:101030009CFAACFEB0D1A0EB82014FF02003520924
:1010400008BFBDE8F08F85A006B403EB430C6144F4
:10105000A2F5803202EB43324D680C68C91AD0F811
:1010600004B050F808AB85FB0AEC85FB0B5E84FBF3
:101070000B5BBCEB0B0B84FB0A5A1AEB0E0A4D6898
:101080000C68C91AD0F8049050F8088B85FB08EC5E
:1010900085FB095E84FB0959BCEB090984FB0858F0
:1010A00018EB0E084D680C68C91A476850F8086BB1
:1010B00085FB06EC85FB075E84FB0757BCEB070747
:1010C00084FB065616EB0E064D680C680031D044C2
:1010D000D944A8EB4A0AA9EB4B0B4FEAA4044FEA08
:1010E000A50504EB660405EB6705A4EB0606A5EB76
:1010F000070704EB680405EB6905A4EB0808A5EBFA
:10110000090906EB6B06A7EB6A07A6EB0B0B07EBCF
:101110000A0A4D600C60C9184F600E60C918C1F80A
:101120000490C1F80080C918C1F804A041F808BBB8
:10113000B2F5803290DA03EB430C6144A2F1010274
:101140005FEA024E18BFA0EB0C0083D106BC4FEA49
:10115000830392087FF478AF41F2444BC0F2000B56
:10116000884640F2F819C144D8F8045058F8087B72
:1011700017EB050148F8081C002148F8041C7F1BE8
:10118000C9F8087040F21F00DBF804305BF8084B28
:10119000D8F8045058F8087BD9F8046059F80829A1
:1011A0006FF0004CACEB640C87FB04E14FEAA1014B
:1011B00085FB03EAA1EBAA0182FB0CEA01EB6A01C1
:1011C00086FB03EAA1EBAA014FEA810148F8081C5B
:1011D00085FB04E14FEAA10187FB03EA01EBAA01C9
:1011E00082FB03EAA1EBAA0186FB0CEAA1EB6A01F0
:1011F0004FEA810148F8041C82FB04E14FEAA10197
:1012000086FB03EA01EBAA0187FB0CEA01EB6A010A
:1012100085FB03EA01EBAA014FEA8101C9F8081036
:1012200086FB04E14FEAA10182FB03EAA1EBAA01DC
:1012300087FB03EA01EBAA0185FB0CEAA1EB6A013B
:101240004FEA8101C9F80C1001389DD1D8F804503B
:10125000C5F10005C8F80450BDE8F08FFFFFFF7F1F
:1012600000000000FFFFFF7F00000000FFFFFF7F86
:10127000000000004DC5FB303DAF41763DAF4176EB
:101280004DC5FB309A79825A9A79825A66867DA535
:101290009A79825A9A79825A9A79825A0000000081
:1012A000FFFFFF7FC350BE89B33A04CF4DC5FB306B
:1012B0003DAF417666867DA59A79825AFFFFFF7F12
:1012C00000000000FFFFFF7F00000000FFFFFF7F26
:1012D000000000005B057D7A5E0C28258F36627F5A
:1012E0005ED38B0C405F8A7D3CB8F818A4986D6A79
:1012F000E7EC1C47405F8A7D3CB8F8183DAF41766B
:101300004DC5FB3094CC3351AC01F2625B057D7A64
:101310005E0C2825A4986D6AE7EC1C474DC5FB3090
:101320003DAF41763DAF41764DC5FB309A79825A4B
:101330009A79825A5ED38B0C8F36627FC6CBE2706D
:1013400070BA563CE7EC1C47A4986D6AC44707E79F
:10135000405F8A7DA4986D6AE7EC1C474DC5FB3061
:101360003DAF41769045A9C3C6CBE270AC01F262B5
:1013700094CC33513CB8F818405F8A7D66867DA5D1
:101380009A79825A9A79825A9A79825A0000000090
:10139000FFFFFF7F3A341D8F70BA563C94CC335117
:1013A000AC01F262C44707E7405F8A7DC0A0758246
:1013B0003CB8F818E7EC1C47A4986D6AB33A04CF20
:1013C0003DAF417671C99D80A22C74F370BA563C32
:1013D000C6CBE2701913E3B8A4986D6AC350BE89F6
:1013E000B33A04CF4DC5FB303DAF417666867DA54F
:1013F0009A79825A54FE0D9D6C33CCAE5E0C282532
:101400005B057D7A5C679295E7EC1C471913E3B89E
:101410005C6792953CB8F818405F8A7DC350BE89DE
:101420004DC5FB30A2F3D7DAA5FA82855ED38B0CCB
:101430008F36627FC0A075823CB8F818FFFFFF7F2F
:10144000000000808426B87972782780A22C7473FB
:1014500071C99D8091EF376D04AA6281C447076707
:10146000C0A075828506E6601204D683A2F3D75A1F
:10147000A5FA828515CBE054EC7B7B87B33A044F09
:10148000C350BE89ECDF45492F144A8C9045A943CF
:101490003A341D8F9BE1313EECF235921913E3385B
:1014A0005C6792950C20C033E07E30996C33CC2E73
:1014B00054FE0D9D2E5B0A2A768328A166867D2523
:1014C00066867DA5768328212E5B0AAA54FE0D1D13
:1014D0006C33CCAEE07E30190C20C0B35C67921543
:1014E0001913E3B8ECF235129BE131BE3A341D0F0B
:1014F0009045A9C32F144A0CECDF45C9C350BE095F
:10150000B33A04CFEC7B7B0715CBE0D4A5FA820578
:10151000A2F3D7DA1204D6038506E6E0C0A075026E
:10152000C44707E704AA620191EF37ED71C99D0036
:10153000A22C74F3727827008426B8F9000000000A
:101540002DE93040AFF2880E30C884FB044385FBA0
:101550000525A4186B411BD0B3FA83F505F0FE05F1
:10156000AB40C5F12002D44044EA0304230E5EF8E8
:101570002320C4F30F231403120D5A4314EB121447
:101580006D08EC4040F8084C0139DDD1BDE83080F1
:10159000B4FA84F505F0FE05AC40230E5EF8232076
:1015A000C4F30F231403120D5A4314EB12146D08E5
:1015B000EC40240C40F8084C0139C5D1BDE830801E
:1015C000020008FFF20F18FDC31F28FB752F48F912
:1015D000093F88F7814EA8F5DB5DF8F31A6D38F204
:1015E0003D7C88F0458BF8EE339A58ED08A9B8EBAE
:1015F000C3B738EA65C6B8E8F0D428E762E3B8E5CF
:10160000BDF148E40100E9E22F0E89E1461C39E012
:10161000492AC9DE353889DD0D4639DCD053F9DA7F
:101620007F61C9D91B6F79D8A27C59D7178A19D67F
:101630007897F9D4C7A4D9D304B2B9D22FBF99D11E
:1016400048CC89D050D969CF46E669CE2CF359CD24
:1016500001005ACCC60C4ACB7A195ACA1F264AC96D
:10166000B4325AC8393F6AC7AF4B8AC616589AC5B2
:101670006F64AAC4B970BAC3F47CDAC221890AC201
:1016800041951AC152A14AC056AD6ABF4CB99ABE23
:1016900035C5CABD11D1FABCE0DC2ABCA2E86ABBE0
:1016A00057F4AABA0100CBB99D0B1BB92E175BB832
:1016B000B3228BB72B2EEBB698392BB6FA446BB509
:1016C0005050ABB49A5B0BB4DA664BB30E72ABB24C
:1016D000387DFBB156885BB16B939BB0749EFBAFBA
:1016E00073A95BAF68B4ABAE52BF1BAE33CA6BAD70
:1016F00009D5CBACD5DF3BAC98EA9BAB51F50BAB36
:1017000001005CAAA60ADCA943153CA9D61FACA817
:10171000602A1CA8E1348CA7593FFCA6C8497CA6C6
:101720002E54ECA58C5E5CA5E168CCA42D734CA472
:10173000717DBCA3AC873CA3DF91BCA20A9C2CA208
:101740002DA6ACA147B02CA159BABCA064C43CA042
:1017500067CEAC9F61D84C9F55E2BC9E40EC4C9E3E
:1017600024F6CC9D00005D9DD509ED9CA3136D9CD6
:10177000691DFD9B28278D9BE0300D9B903AAD9A0B
:101780003A442D9ADC4DCD9978574D990C61ED98DE
:101790009A6A7D9821740D98A17DAD971B873D971E
:1017A0008E90CD96FA996D9660A30D96C0AC9D95DE
:1017B00019B62D956BBFDD94B8C86D94FED10D940C
:1017C0003EDB9D9378E43D93ABEDED92D9F67D92AF
:1017D00000002E922209BE913E125E91531B0E9183
:1017E0006324AE906D2D5E907236EE8F703FAE8F9B
:1017F0006A483E8F5D51EE8E4B5A8E8E33633E8E1D
:10180000166CDE8DF3748E8DCB7D3E8D9E86DE8CC8
:101810006B8F8E8C33982E8CF5A0EE8BB3A98E8BAC
:101820006BB23E8B1EBBEE8ACCC38E8A74CC4E8AC2
:1018300018D5FE89B7DDAE8951E64E89E5EE0E89F1
:1018400075F7BE8800006F8886082F880811CF873B
:1018500084198F87FC213F876F2AEF86DD32AF86A0
:10186000473B5F86AC430F860C4CCF8568547F8521
:10187000BF5C3F851265EF84606DAF84AA756F848D
:10188000F07D0F843086DF836D8E8F83A5964F8326
:10189000D99E0F8309A7BF8234AF7F825BB73F8297
:1018A0007EBFFF819DC7AF81B7CF7F81CED72F810C
:1018B000E0DFEF80EEE7AF80F8EF6F80FEF72F807C
:1018C00021F00042A2F16052B2F5801F01F0004306
:1018D00028BFD2F17F6C0BD95FEA001C43EAC20239
:1018E00042EB507018BF704728BF20F001007047CE
:1018F000B2F5801FBCBF184670474FEA410C1CF57B
:10190000001F02D2084600F0CFBB70B500F0B2F85D
:1019100000000089FFF7F6BF4FF00040A0F58000FF
:101920007047000010B591EA030F48BF83F00043F1
:1019300000F10881841A71EB030C05D2121943EBF4
:101940000C03001B61EB0C01DFF824E14FEA11549A
:10195000A4EB135C1EEA430F18BF9EEA445F73D0EA
:1019600023EA0E03DCF1200E21EA045143F4801334
:1019700032D322FA0CFE10EB0E0023FA0CFE41EBE0
:101980000E01CCF1200E03FA0EFE10EB0E0051F109
:101990000001B1F5801FCCF1200E32D201EB0451D1
:1019A00012FA0EF2BDE8104058BF7047401C38BF15
:1019B0005FEA420218BF7047002814BF20F0010000
:1019C00041F100014FEA410313F5001F38BF704792
:1019D000A1F1C04100F09CB8012A43EB0302ACF135
:1019E000200CDCF11F0E32BF4FF0000E23FA0CF377
:1019F00010EB030041EB0451B4EB115FD0D0A1EB2D
:101A0000045101F5801149085FEA300001EB0451EF
:101A10000ED350F1000038BF12FA0EFE08D1BDE817
:101A20001040C9E7401C38BF5FEA4202CAD1C3E791
:101A3000BDE810404FEA410313F5001F38BF70475F
:101A4000A1F1C04100F064B89EEA445F08D011EAF9
:101A50005E0FBDE8104004BF01F000410020704758
:101A6000BDE8104070B500F005F800BF64FBBE3E55
:101A70000000E0FF0EF1020E2EF0030E5EF8046B84
:101A8000364205D4012A43EB030515F5001F12D891
:101A9000012841EB010C1CF5001F0CD80ED14FEAB8
:101AA000D17C15F5001F0CEB4C0C0CF1020C08BF9F
:101AB0004CEBD37C04E04FF0080C01E04FEAD37C00
:101AC0000CEB4C0526FA05F606F00706B6F1040CF9
:101AD00006D20EEB860CBDE870404CF0010C60475E
:101AE000DFE80CF0090B02024FF000414FF000005C
:101AF000A1F5002170BD19461046012851EB0104E3
:101B000018BFD4F5001484BF002001F0004170BD5F
:101B10000808A0F500114FEA3101704791EA030F60
:101B200010B581F000413FF505AF83F0004300F0B0
:101B300009B8000010B591EA030F48BF83F00043D5
:101B40003FF5F8AE841A71EB030C07D212198CF032
:101B5000004C43EB0C03001B61EB0C01DFF8A4E12C
:101B60004FEA1154A4EB135C1EEA430F18BF9EEA20
:101B7000445F00F0B08023EA6E03524221EA045130
:101B8000C3EB6E0338BF5B1EDCF1200E25D322FAB7
:101B90000CFE10EB0E0043FA0CFE41EB0E01CCF1F3
:101BA000200E03FA0EFE10EB0E0051F10001CCF1F5
:101BB000200E29D412FA0EF201EB0451BDE81040B8
:101BC00058BF7047401C1CBFB2F1004F704700283F
:101BD0000CBF491C20F00100704712EB020E43EBD2
:101BE000030218BF4FF0010E4EEA4202ACF1200C86
:101BF000DCF11E0E54D943FA0CFE10EB0E0051F12D
:101C0000FF31CCF11E0ED5D50EF1010E12FA0EFEEB
:101C1000404141EB010101EB445C5FEA5C5C10D99F
:101C200010EBDE7001EB045138BFBEF1004FBDE890
:101C3000104018BF704700280CBF491C20F001005D
:101C4000704730D24FEAD42C11F5001124F400640F
:101C50001BD0B1FA81F20B3AA41AA41ED2F12003D0
:101C6000914030FA03F31943904001EBCC71002C02
:101C700001EB0451BDE81040A8BF704701F1C0411D
:101C80004FF0000001F000417047B0FA80F310FA05
:101C900003F100D110BDE41A173C4805C90AE4E776
:101CA00001EB045110BD491001EB0451BDE8104097
:101CB0004FEA300002E04FF0000170474A0008BFD1
:101CC0000042F8D0B2F5001F28BF704701F0004174
:101CD0004FF0000070479EEA445F07D011EA5E0FA4
:101CE000BDE8104004BF002100207047BDE810404F
:101CF00070B5FFF7BFFE00BF40DFF63E83F0004146
:101D0000104670470000E0FF43004FEAD30C4FEA53
:101D10003C0C43401FBF40070CF1605113F0FE4FD5
:101D200070471CF0006F03D100200CF00041704799
:101D30000CF0004343EA507010B540EACC0000F0CC
:101D400066F900BF000000924FEA0001FFF7E0BE15
:101D50004FF000414FF00000A1F500217047000056
:101D600090EA010F48BF81F0004100F1DA81421A88
:101D70003CBF801A89184FEAD0524FF07F4C1CEAC2
:101D8000410FA2EBD15318BF9CEA026F00F03B80D9
:101D90004FF0004C4CEA00204CEA012121FA03FCF0
:101DA00010EB0C0C1ED202F1FF325FEA1C2040EB5C
:101DB000C25038BF70471CF07F0F4FEA400C18BF6D
:101DC000BCF17F4F38BF7047C3F12003994008BF73
:101DD00020F00100BCF17F4F38BF7047A0F1C04038
:101DE00000F062B94FEA3C00000A40EBC25028BF45
:101DF0001CF0FF0F4FEA400CE6D018BFBCF17F4F3C
:101E000038BF7047EAE79CEA026F05D010EA5C0F22
:101E100008BF00F00040704710B500F0F8F800BFB0
:101E200064FBBE3E401058BFC0F14040491058BF4F
:101E3000C1F140418142EFF30080704741000B0E39
:101E4000D3F19E0208D950F400034FEA032323FA8A
:101E500002F048BF4042704710B500F0D8F800BF0C
:101E600049922480002070476FF0004282EA2000EF
:101E70007047000010F0004148BF4042B0FA80F3C4
:101E800010FA03F2C3F19D030BD051EAC35101EBE9
:101E90001220530638BF704700F1010008BF20F040
:101EA0000100704750EA010C00F113801CF5000F8F
:101EB00058BFBCF5000F01D48842704707D710F512
:101EC000000F58BF11F5000F15D4884270478942A2
:101ED00070471CF5000F04D5BCF5000FF7D5814203
:101EE00070474FF0807C1CEB400F38BF1CEB410F5C
:101EF00001D28142704710B500F089F89224490060
:101F00004FF000504FF08051FFF78CBF4FF47F0C23
:101F10001CEAD0121EBF1CEAD11392EA0C0F93EAFE
:101F20000C0F00F0478090EA010F48BF42F4807226
:101F30004FF0004C4CEA00204CEA012102EB030276
:101F4000A0FB0113A2F50002002918BF43F0010312
:101F50005B0028BF4FEA330342EB22425FEA132CB7
:101F60004CEBC2502EBFBCEB436FB2F57C0F7047F9
:101F70004FEA036CBCF1004F08BF20F00100B2F53E
:101F80007C0F38BF70470BD582F0FF0212F5803FFF
:101F9000C8BF704700F1C040D8BF00F00040704794
:101FA00000F5000C5FEA4C0C48BF7047B0F1C04030
:101FB00000F07AB890EA010F0CEAD11348BF42F45E
:101FC0008072624538BF634504D280EA010000F0A8
:101FD0000040704710B500F01AF800BF8900013EBC
:101FE00000F007B800F009B85FEA410C5FEA1C6C2A
:101FF00008D080EA010000F057B85FEA400C5FEAC1
:102000001C6CF6D14FF00040A0F5800070470EF137
:10201000020E2EF0030E5EF8044B244204D44FEA65
:102020004102B2F17F4F11D84FEA4003B3F17F4F25
:102030000CD80ED14FEAD07CB2F17F4F0CEB4C0C98
:102040000CF1020C08BF4CEBD17C04E04FF0080C03
:1020500001E04FEAD17C0CEB4C0324FA03F404F0CA
:102060000704B4F1040C06D20EEB840CBDE810405A
:102070004CF0010C6047DFE80CF0070802024FF05B
:102080000040A0F5800010BD0846420018BFD2F104
:10209000807288BF00F0004010BD10B5FEF768FFE9
:1020A0004FF00001016010BDFF2141EAD050C00592
:1020B000704751EA000C00F113801CF5000F58BF67
:1020C000BCF5000F01D48142704707D711F5000F0E
:1020D00058BF10F5000F15D48142704789427047F0
:1020E0001CF5000F04D5BCF5000FF7D588427047EA
:1020F0004FF0807C1CEB410F38BF1CEB400F01D22E
:102100008842704780EA010081EA000180EA01000C
:10211000FFF7F1BE90EA010F48BF81F000413FF5A3
:1021200026AE421A04D882F00042A0EB020011440D
:102130004FEAD0524FF07F4C1CEA410FA2EBD15333
:1021400018BF9CEA026F4AD04FF0004C4CEA0020C6
:102150004CEA012121FA03FCB0EB0C0C0FD412F075
:10216000FE0F36D05FEA4C001DD5001240EBC25086
:1021700038BF70471CF03F0F18BF70470BE0A2F14B
:1021800001025FEA1C2040EBC25038BF70471CF0D0
:102190007F0F18BF7047C3F12003994014BF401E42
:1021A00020F00100704780084FEA122308BF7047F3
:1021B000B0FA80FCA2EB0C02CCF1280C60FA0CF017
:1021C00093EA122F04BF00EBC25070474FEAC3706E
:1021D0007047130A5FEADC1008BF7047F6E79CEA15
:1021E000026F04D010EA5C0F08BF0020704710B5E2
:1021F000FFF70DFF40DFF63E81F00040704702031D
:102200000405060708090B0C0D0E0F10111213150B
:102210001617000034220000000000103C000000EF
:1022200064010000702200003C0000100C17000048
:10223000800100000000000000000000000000001D
:10224000000000000000000001000000000000008D
:10225000000000000000000000000000000000007E
:10226000000000000000000000000000ABAA2642B1
:04000005000001C92D
:00000001FF
