:020000040000FA
:1000000058170010C5010000CD010000CF0100000D
:10001000D1010000D3010000D50100000000000064
:10002000000000000000000000000000D7010000F8
:10003000D901000000000000DB010000DD0100002C
:10004000DF010000DF010000DF010000DF01000030
:10005000DF010000DF010000DF010000DF01000020
:10006000DF010000DF010000DF010000DF01000010
:10007000DF010000DF010000DF010000DF01000000
:10008000DF010000DF010000DF010000DF010000F0
:10009000DF010000DF010000DF010000DF010000E0
:1000A000DF010000DF010000DF010000DF010000D0
:1000B000DF010000DF010000DF010000DF010000C0
:1000C000DF010000DF010000DF010000DF010000B0
:1000D000DF010000DF010000DF010000DF010000A0
:1000E000DF010000DF010000CD06000099070000DD
:1000F000A9070000DF0100004D080000DF0100003B
:10010000DF010000810E0000DF010000DF010000C0
:10011000DF010000DF010000DF010000690E0000C8
:100120001D0B0000DF01000000F002F800F03AF8BB
:100130000AA090E8000C82448344AAF10107DA4542
:1001400001D100F02FF8AFF2090EBAE80F0013F05A
:10015000010F18BFFB1A43F001031847641C00008D
:10016000841C0000103A24BF78C878C1FAD852071E
:1001700024BF30C830C144BF04680C607047000021
:100180000023002400250026103A28BF78C1FBD8A0
:10019000520728BF30C148BF0B6070471FB51FBD55
:1001A00010B510BD00F0EEFE1146FFF7F7FF00F0AE
:1001B0007FF800F098F803B4FFF7F2FF03BC00F0FB
:1001C00007FF00000948804709480047FEE7FEE7AF
:1001D000FEE7FEE7FEE7FEE7FEE7FEE7FEE7FEE7F7
:1001E00004480549034A054B70470000DF02000040
:1001F000290100005815001058170010581500105C
:100200002DE9F04700239246284F1A46994600BF31
:1002100040F82290002407EB420650F822C0355DDA
:10022000641C022C50F825504FEAE57805EB984500
:100230000CEBA53540F82250EFDB9D4200DD2B464C
:10024000521C0A2AE4DBFE2493FBF4F3FE2B01DDAF
:10025000FE2301E003B901235FF0000250F82250B1
:1002600095FBF3F540F82250FE2D01DD40F82240C9
:1002700010F822508D54521C0A2AEFDB8AF8003005
:10028000BDE8F08710B50C460146204600F0A8FEF8
:100290003F2104F1080001F07FF9002054F83010EC
:1002A00044F82010401C4028F8DB10BDAA1D0000B7
:1002B00000F0CEF900F040FA00F022FA00F0A3FCC2
:1002C00000F006FC00F010FB00F086FD00F04EF997
:1002D00000F06FFA00F086FA00F0DAFCFCE77047F5
:1002E0007047704770470446AFF300802046FFF721
:1002F00062FF000000487047F8140010FFFFFFFF86
:1003000010B58AB0BD4C00F0E3FB4FF47A7000F0FA
:100310001EFABB4800214160BA4A4B1E1360426975
:10032000C2F34112032AFAD100E002684269D207FF
:10033000FBD140690122B34B10031B1D1860B2486A
:100340004161B248816841F480618160816841F017
:1003500040018160816841F4803181600260392010
:10036000009005A96846A0470AB010BD2DE9F041EC
:10037000064600F03BFA16F0FF0F6AD1310E002559
:10038000A34FA44CC6F3074004292BD004DC012959
:1003900007D002295DD116E008293AD0102958D19A
:1003A00048E02078012801D0022852D100F090FBCB
:1003B0002078022801D100F09FF900F08EFA257014
:1003C00000F010FA27E0217899BBA06088B30220E2
:1003D00000F0F2FA00F082FB8F49384600F0C0F9D5
:1003E000022014E0217821BB411E084231D100B324
:1003F000E56001E040086D1C0128FBD80120E560A4
:1004000000F0DAFA8549864800F0AAF90120207048
:1004100001E0FFF775FF0324FF25E00005FA00F176
:100420003140C140C8B200F03CFA641EF5D5BDE8C9
:10043000F0810EE0217861B9A06050B1022000F097
:10044000BBFA00F04BFB7449384600F089F90320F1
:10045000DDE700F0C7F90324FF2000F022FA641E54
:10046000FAD5E4E770B50546084600F01AFA00240C
:10047000285D00F016FA641C0A2CF9DB70BD2DE92A
:10048000F04764488AB00178032904D165490A68B5
:1004900042F080720A60DFF890A100244FF0010959
:1004A000804600BFD8F8082009FA04F1114226D08E
:1004B0005E48D8F8045000EB4426C5F1800706EBEF
:1004C0008501BA0000F5805000F02AFD5848AA00C6
:1004D000314600EB870000F023FD56495448FFF7F2
:1004E000D1FE01AA04A95348FFF78AFE98F800003C
:1004F00003280DD09DF8041004A8FFF7B3FF641C77
:10050000082CCFDBFF2000F0CCF90AB0BDE8F08763
:10051000062C01D0052CF2D104AA0020125D014660
:10052000491C10440A29FBDB9DF804104843062CA3
:1005300009D0414909688842DAF80010504611D9BB
:1005400041F0020110E03D4909688842DAF80010E4
:10055000504602D941F0010101E021F001010160A2
:1005600007249FE721F002010160C8E734480168D1
:1005700041F001010160016841F002010160314870
:10058000016841F001010160016841F00201016070
:1005900070472C490A6822F001020A600A6822F0BA
:1005A00002020A602849294BD0B1184A783A022839
:1005B00008681ED020F002000860D2F8300240F631
:1005C000FF710843C2F83002186840F00400186058
:1005D000D2F8380220F00300C2F8380230BF70476A
:1005E000086820F002000860186820F00400186015
:1005F000F4E740F002000860E6E70000F11FFF1F8B
:100600000080004080E100E00080014078800440EC
:1006100040420F0000000010ED060000DD0A00005F
:10062000A086010000C00140FC3F025050000010B5
:10063000501000105012001048000010440000102C
:1006400000800350FC3F03500080034010ED00E0A9
:100650001D48D0F8381221F02001C0F838120022CD
:100660000262114600BF491CC829FBDB012101645D
:10067000416442644164436CDB07FCD02523836002
:10068000D0F8383223F08003C0F83832C368DB0773
:10069000FCD003230367416742674167426FD2077B
:1006A000FCD07830D0F8C02142F48062C0F8C0217C
:1006B000D0F8C02142F48072C0F8C0210160816886
:1006C00041F48031816070470080044010B5554C82
:1006D000206840F004002060FFF7D1FE206820F081
:1006E0000400206050490120086010BD4E480221DE
:1006F00041600121416070474B49002048607047CC
:1007000010B572B64948016841F4807101604648ED
:1007100040F21F11C160002141600321416142F29A
:100720008D01816162B62A2000F064F80B21BDE8DA
:1007300010402A2000F06AB83C48016841F080016E
:1007400001603B484721C160012141607047384A40
:10075000916889B293685B1A9BB28342FAD370475F
:1007600010B572B6334A116030490A6842F400721B
:100770000A60314C022161604721E160052161611D
:10078000A0612B2000F036F810212B2000F03EF85D
:100790000120606062B610BD264810B50068804731
:1007A00025490120086010BD244901200860FFF799
:1007B000F0BE10B572B61D48016841F48061016059
:1007C0001E48002181601E49C16005214161082148
:1007D00081612C2000F00EF81E212C2000F016F86C
:1007E00062B610BD154901204860704713490220C8
:1007F0004860704700F01F020121914040094FF00E
:10080000E02202EB8000C0F8001170474907090E92
:10081000002803DA00F00F000A4A00E00A4A815477
:1008200070470000FC3F03500000014080800440FE
:1008300000C0004010000010004001400080014056
:10084000FFA14A0414ED00E000E400E0414910B5C6
:100850008868414C00F00E0002280FD004280CD10B
:100860000A68A068211D0A54401EA06005D50968C9
:10087000002000F01BFA0320A06010BDD4E9032083
:1008800082420BD0354A125C0A60401C5921B0FBF1
:10089000F1F201FB12002061002000E00120206045
:1008A00010BD70B52C490A6822B100220A6029499E
:1008B000086070BDD1E90325531C5924B3FBF4F63D
:1008C00004FB1633AB42FDD0244B9854521CB2FBB0
:1008D000F4F004FB1020C86070BD1F480021C16007
:1008E000016101210160704710B572B61C4B186898
:1008F00040F480501860184903240022C1E90242E4
:1009000001200A6108601749086048609861114831
:100910008321C16010218162426027210160C1688A
:1009200021F08001C1600721816041694169C1F303
:1009300041110329FAD100E001684169C907FBD1DF
:10094000446009492020087008494002086062B6E6
:1009500010BD00000080004014000010581400106A
:1009600080800440A44004402EE400E004E100E064
:10097000B249CA6802F01202022AFAD18860C86835
:1009800000F014000428FAD188687047AC48C16FA1
:1009900041F40061C1670121C0F89010016841F085
:1009A00007010160A54887210160016941F0140138
:1009B00001610221416070472DE9F04188B0044691
:1009C0001C22A0A1684600F0ABFA0021A44A084608
:1009D00002F82100491C0929FADBFFF7D7FFA149DA
:1009E0000220012C0C7000D104209F4E40F08000AA
:1009F0008DF80300306820F0200030609B4C2068A8
:100A000040F004002060206840F0800020604FF437
:100A10007A652846FFF79BFE206820F08000206062
:100A20002846FFF794FE206840F080002060206890
:100A300020F0040020604FF4C8773846FFF787FEA7
:100A40001120FFF795FF3846FFF781FE206840F040
:100A5000040020603846FFF77AFE206820F004008A
:100A6000206000254FEA0D0818F80500FFF780FF09
:100A70003846FFF76CFE6D1C1C2DF5DB206840F03E
:100A8000040020603846FFF762FE206840F0040052
:100A90002060206820F0040020603846FFF757FEF1
:100AA0001020FFF765FF3846FFF751FE206840F041
:100AB000040020603846FFF74AFE306840F020000E
:100AC00030604FF44870FFF742FE08B0BDE8F08197
:100AD0006548016821F020010160704758487C306A
:100AE000016841F04001016072B661494FF08070C9
:100AF00008606048016821F020010160416821F030
:100B000020014160816821F020018160C16821F0ED
:100B10002001C1602021016162B67047F0B5564CDA
:100B2000524B89B04E482060196821F004011960C9
:100B3000002642490246FF258D60CF6807F0140762
:100B4000042FFAD18F68D7708D60CF6807F0140733
:100B5000042FFAD18F6897708D60CF6807F0140763
:100B6000042FFAD18F685770121D761C092EE3DB13
:100B70002260196841F0040119603A490978012995
:100B800004D0022914D0032912D02DE03B49096872
:100B900000EB8100001D2060C078FFF782FE206816
:100BA0008078FFF77EFE20684078FFF77AFE1BE032
:100BB0006946001D00F094F8B0B1324A304C002074
:100BC00011686B4604EB402753F82060401C7610F8
:100BD00047F821600828F5DB491CC81701EB506075
:100BE00020F07F00081A10602248C56109B0F0BDEE
:100BF0001248FF218160C16801F014010429FAD173
:100C00008068C0B27047204810B50121C0F8B0100C
:100C10000167016641661022C26116490B6843F004
:100C200004030B604264194B1C6844F020041C60F0
:100C30000265086840F08000086010BD00000440B4
:100C40000480044040197F8610DC0310101010103F
:100C50001010100000FF0200FE06000000020AE370
:100C6000B114001000000010FC3F0250FC3F005087
:100C700004E100E000800050280000100C0000108B
:100C8000500000100400001000400440008002509A
:100C900010B5124C2078C00707D0201D0068FFF760
:100CA00065FB206820F00100206010BD2DE9F041B7
:100CB000064601240F46B440084D02E06420FFF7C9
:100CC00046FD28680442F9D10448001D40F826700A
:100CD000286804432C60BDE8F08100002C0000105F
:100CE0002DE9F05F244C0F4605464FF07E56DFF8A5
:100CF0008CB03146206800F00FFE2060616800F083
:100D0000ADFFD4E9000127D200F0DAFF8046206071
:100D10004146304600F0D4FFC14682460024D84602
:100D200055F8240000F082FE514600F0CBFE064646
:100D300058F8240000F07AFE494600F0C3FE314620
:100D400000F0EAFD00F056FE47F82400641C082C71
:100D5000E6DB0120BDE8F09F00F0B2FFB04208DA08
:100D60000020594655F8202041F82020401C082832
:100D7000F8DB0020EEE7000034000010D81400106B
:100D80005C4801685C4A114301605C4A022151677A
:100D90005B490A6822F400620A60D0F8B81121F0B9
:100DA0001001C0F8B811016841F4005101605648C3
:100DB000544901608115C160312000F08EB853485C
:100DC000017853480029016803D041F00401016013
:100DD000704721F00401FAE74E4810B5016841F070
:100DE000010101604A490A6822F001020A600268B2
:100DF00042F0020202600A6822F002020A60016800
:100E000041F00401016041484FF47A71816049006A
:100E1000C1603848016841F04001016072B6372076
:100E200000F05BF83C48016821F010010160416866
:100E300021F010014160816821F010018160C168DA
:100E400021F01001C160016821F020010160102132
:100E5000016162B6FFF7B3FF4FF083510020FFF747
:100E600025FFBDE810408BE7284800B5017881F0E8
:100E700001010170FFF7A3FF2749FF20C86100BDF2
:100E8000214808B5016B4068C0F38910ADF8000037
:100E90002248006840F340111C48491C818018D04A
:100EA000BDF800104288A1EB0201016103784FF008
:100EB000000201EB810133B1836813EB41018160D2
:100EC00007D5826005E0C36813EB4101C16000D51E
:100ED000C260BDF80010418008BD00F01F02012172
:100EE000914040094FF0E02202EB8000C0F8001171
:100EF0007047000080800440400001000040044032
:100F0000008000500117200000C001403C0000108C
:100F1000FC3F02500080025000800150FC3F015015
:100F200010B5203AC0F00B80B1E81850203AA0E884
:100F30001850B1E81850A0E81850BFF4F5AF5FEAB8
:100F4000027C24BFB1E81850A0E8185044BF18C96B
:100F500018C0BDE810405FEA827C24BF51F8043B12
:100F600040F8043B08BF7047D20728BF31F8023B66
:100F700048BF11F8012B28BF20F8023B48BF00F8FA
:100F8000012B70477546FFF7B5F9AE460500694677
:100F9000534620F00700854618B020B5FFF720F92A
:100FA000BDE820404FF000064FF000074FF000086A
:100FB0004FF0000B21F00701AC46ACE8C009ACE8EB
:100FC000C009ACE8C009ACE8C0098D467047000014
:100FD00001491820ABBEFEE7260002007047000062
:100FE0002DE9F04F4FF080025FF0000EF4465305FC
:100FF00011EBCE0EDEF80450DEF800401EEB020EC0
:10100000DEF80490DEF800801EEB020EDEF80470BD
:10101000DEF800601EEB020EDEF804B0DEF800A081
:101020001EEB020ED044D944A8EB4A0AA9EB4B0BA5
:101030004FEAA4044FEAA50504EBA60405EBA705B7
:10104000A4EB6606A5EB670704EBA80405EBA9056E
:10105000A4EB6808A5EB690906EBAB06A7EBAA07AA
:10106000A6EB6B0B07EB6A0A456040F8084B47603C
:1010700040F8086BC0F8049040F8088BC0F804A052
:1010800040F808BB1CEB030C9CFAACFEB0D1A0EB03
:1010900082014FF02003520908BFBDE8F08F85A000
:1010A00006B403EB430C6144A2F5803202EB4332F9
:1010B0004D680C68C91AD0F804B050F808AB85FB2D
:1010C0000AEC85FB0B5E84FB0B5BBCEB0B0B84FB20
:1010D0000A5A1AEB0E0A4D680C68C91AD0F8049027
:1010E00050F8088B85FB08EC85FB095E84FB0959E9
:1010F000BCEB090984FB085818EB0E084D680C6816
:10110000C91A476850F8086B85FB06EC85FB075E3B
:1011100084FB0757BCEB070784FB065616EB0E064D
:101120004D680C680031D044D944A8EB4A0AA9EBB9
:101130004B0B4FEAA4044FEAA50504EB660405EB4C
:101140006705A4EB0606A5EB070704EB680405EBAF
:101150006905A4EB0808A5EB090906EB6B06A7EBEC
:101160006A07A6EB0B0B07EB0A0A4D600C60C91867
:101170004F600E60C918C1F80490C1F80080C9180A
:10118000C1F804A041F808BBB2F5803290DA03EB55
:10119000430C6144A2F101025FEA024E18BFA0EBCA
:1011A0000C0083D106BC4FEA830392087FF478AF2A
:1011B00041F29C4BC0F2000B884640F2F819C14442
:1011C000D8F8045058F8087B17EB050148F8081CBC
:1011D000002148F8041C7F1BC9F8087040F21F006A
:1011E000DBF804305BF8084BD8F8045058F8087B5B
:1011F000D9F8046059F808296FF0004CACEB640C86
:1012000087FB04E14FEAA10185FB03EAA1EBAA01F8
:1012100082FB0CEA01EB6A0186FB03EAA1EBAA015F
:101220004FEA810148F8081C85FB04E14FEAA1015F
:1012300087FB03EA01EBAA0182FB03EAA1EBAA0107
:1012400086FB0CEAA1EB6A014FEA810148F8041C15
:1012500082FB04E14FEAA10186FB03EA01EBAA014C
:1012600087FB0CEA01EB6A0185FB03EA01EBAA01AB
:101270004FEA8101C9F8081086FB04E14FEAA10199
:1012800082FB03EAA1EBAA0187FB03EA01EBAA01B7
:1012900085FB0CEAA1EB6A014FEA8101C9F80C1049
:1012A00001389DD1D8F80450C5F10005C8F80450A4
:1012B000BDE8F08FFFFFFF7F00000000FFFFFF7F12
:1012C00000000000FFFFFF7F000000004DC5FB3065
:1012D0003DAF41763DAF41764DC5FB309A79825A9C
:1012E0009A79825A66867DA59A79825A9A79825A23
:1012F0009A79825A00000000FFFFFF7FC350BE8929
:10130000B33A04CF4DC5FB303DAF417666867DA52F
:101310009A79825AFFFFFF7F00000000FFFFFF7FE6
:1013200000000000FFFFFF7F000000005B057D7AEA
:101330005E0C28258F36627F5ED38B0C405F8A7DE2
:101340003CB8F818A4986D6AE7EC1C47405F8A7DAA
:101350003CB8F8183DAF41764DC5FB3094CC3351C5
:10136000AC01F2625B057D7A5E0C2825A4986D6A5B
:10137000E7EC1C474DC5FB303DAF41763DAF4176B4
:101380004DC5FB309A79825A9A79825A5ED38B0C7A
:101390008F36627FC6CBE27070BA563CE7EC1C47D2
:1013A000A4986D6AC44707E7405F8A7DA4986D6A78
:1013B000E7EC1C474DC5FB303DAF41769045A9C3D6
:1013C000C6CBE270AC01F26294CC33513CB8F81851
:1013D000405F8A7D66867DA59A79825A9A79825A7B
:1013E0009A79825A00000000FFFFFF7F3A341D8F78
:1013F00070BA563C94CC3351AC01F262C44707E753
:10140000405F8A7DC0A075823CB8F818E7EC1C47A5
:10141000A4986D6AB33A04CF3DAF417671C99D80FF
:10142000A22C74F370BA563CC6CBE2701913E3B821
:10143000A4986D6AC350BE89B33A04CF4DC5FB3042
:101440003DAF417666867DA59A79825A54FE0D9D00
:101450006C33CCAE5E0C28255B057D7A5C6792957B
:10146000E7EC1C471913E3B85C6792953CB8F81891
:10147000405F8A7DC350BE894DC5FB30A2F3D7DAE9
:10148000A5FA82855ED38B0C8F36627FC0A07582F1
:101490003CB8F818FFFFFF7F000000808426B87971
:1014A00072782780A22C747371C99D8091EF376D7B
:1014B00004AA6281C4470767C0A075828506E660FA
:1014C0001204D683A2F3D75AA5FA828515CBE0542D
:1014D000EC7B7B87B33A044FC350BE89ECDF4549B0
:1014E0002F144A8C9045A9433A341D8F9BE1313E1D
:1014F000ECF235921913E3385C6792950C20C033F7
:10150000E07E30996C33CC2E54FE0D9D2E5B0A2A62
:10151000768328A166867D2566867DA5768328212B
:101520002E5B0AAA54FE0D1D6C33CCAEE07E301942
:101530000C20C0B35C6792151913E3B8ECF23512B6
:101540009BE131BE3A341D0F9045A9C32F144A0CBC
:10155000ECDF45C9C350BE09B33A04CFEC7B7B072F
:1015600015CBE0D4A5FA8205A2F3D7DA1204D6038C
:101570008506E6E0C0A07502C44707E704AA620139
:1015800091EF37ED71C99D00A22C74F3727827009A
:101590008426B8F9000000002DE93040AFF2880E33
:1015A00030C884FB044385FB0525A4186B411BD080
:1015B000B3FA83F505F0FE05AB40C5F12002D44037
:1015C00044EA0304230E5EF82320C4F30F2314031C
:1015D000120D5A4314EB12146D08EC4040F8084CFD
:1015E0000139DDD1BDE83080B4FA84F505F0FE059F
:1015F000AC40230E5EF82320C4F30F231403120D16
:101600005A4314EB12146D08EC40240C40F8084CBB
:101610000139C5D1BDE83080020008FFF20F18FD86
:10162000C31F28FB752F48F9093F88F7814EA8F59D
:10163000DB5DF8F31A6D38F23D7C88F0458BF8EEEF
:10164000339A58ED08A9B8EBC3B738EA65C6B8E8CD
:10165000F0D428E762E3B8E5BDF148E40100E9E22F
:101660002F0E89E1461C39E0492AC9DE353889DD6B
:101670000D4639DCD053F9DA7F61C9D91B6F79D8AF
:10168000A27C59D7178A19D67897F9D4C7A4D9D389
:1016900004B2B9D22FBF99D148CC89D050D969CFE3
:1016A00046E669CE2CF359CD01005ACCC60C4ACB84
:1016B0007A195ACA1F264AC9B4325AC8393F6AC76A
:1016C000AF4B8AC616589AC56F64AAC4B970BAC31C
:1016D000F47CDAC221890AC241951AC152A14AC0DA
:1016E00056AD6ABF4CB99ABE35C5CABD11D1FABC58
:1016F000E0DC2ABCA2E86ABB57F4AABA0100CBB965
:101700009D0B1BB92E175BB8B3228BB72B2EEBB6F4
:1017100098392BB6FA446BB55050ABB49A5B0BB406
:10172000DA664BB30E72ABB2387DFBB156885BB153
:101730006B939BB0749EFBAF73A95BAF68B4ABAE09
:1017400052BF1BAE33CA6BAD09D5CBACD5DF3BACBA
:1017500098EA9BAB51F50BAB01005CAAA60ADCA989
:1017600043153CA9D61FACA8602A1CA8E1348CA75D
:10177000593FFCA6C8497CA62E54ECA58C5E5CA5FE
:10178000E168CCA42D734CA4717DBCA3AC873CA3B1
:10179000DF91BCA20A9C2CA22DA6ACA147B02CA123
:1017A00059BABCA064C43CA067CEAC9F61D84C9F22
:1017B00055E2BC9E40EC4C9E24F6CC9D00005D9D05
:1017C000D509ED9CA3136D9C691DFD9B28278D9B5E
:1017D000E0300D9B903AAD9A3A442D9ADC4DCD996C
:1017E00078574D990C61ED989A6A7D9821740D98FF
:1017F000A17DAD971B873D978E90CD96FA996D96FA
:1018000060A30D96C0AC9D9519B62D956BBFDD9468
:10181000B8C86D94FED10D943EDB9D9378E43D9362
:10182000ABEDED92D9F67D9200002E922209BE9189
:101830003E125E91531B0E916324AE906D2D5E900F
:101840007236EE8F703FAE8F6A483E8F5D51EE8EDE
:101850004B5A8E8E33633E8E166CDE8DF3748E8DF6
:10186000CB7D3E8D9E86DE8C6B8F8E8C33982E8C3E
:10187000F5A0EE8BB3A98E8B6BB23E8B1EBBEE8AAE
:10188000CCC38E8A74CC4E8A18D5FE89B7DDAE895A
:1018900051E64E89E5EE0E8975F7BE8800006F8827
:1018A00086082F880811CF8784198F87FC213F87EE
:1018B0006F2AEF86DD32AF86473B5F86AC430F86EB
:1018C0000C4CCF8568547F85BF5C3F851265EF84E3
:1018D000606DAF84AA756F84F07D0F843086DF83DE
:1018E0006D8E8F83A5964F83D99E0F8309A7BF82E4
:1018F00034AF7F825BB73F827EBFFF819DC7AF81E0
:10190000B7CF7F81CED72F81E0DFEF80EEE7AF80CA
:10191000F8EF6F80FEF72F8090EA010F48BF81F04B
:10192000004100F1D481421A3CBF801A89184FEA65
:10193000D0524FF07F4C1CEA410FA2EBD15318BF9D
:101940009CEA026F00F03B804FF0004C4CEA002014
:101950004CEA012121FA03FC10EB0C0C1ED202F11F
:10196000FF325FEA1C2040EBC25038BF70471CF0CA
:101970007F0F4FEA400C18BFBCF17F4F38BF704754
:10198000C3F12003994008BF20F00100BCF17F4F54
:1019900038BF7047A0F1C04000F05BB94FEA3C008F
:1019A000000A40EBC25028BF1CF0FF0F4FEA400C6A
:1019B000E6D018BFBCF17F4F38BF7047EAE79CEA1A
:1019C000026F05D010EA5C0F08BF00F000407047BE
:1019D00010B500F0F8F800BF64FBBE3E401058BFE1
:1019E000C0F14040491058BFC1F140418142EFF37E
:1019F0000080704741000B0ED3F19E0208D950F4CD
:101A000000034FEA032323FA02F048BF4042704725
:101A100010B500F0D8F800BF49922480002070472C
:101A20006FF0004282EA20007047000010F0004191
:101A300048BF4042B0FA80F310FA03F2C3F19D03AD
:101A40000BD051EAC35101EB1220530638BF704747
:101A500000F1010008BF20F00100704750EA010CBE
:101A600000F113801CF5000F58BFBCF5000F01D426
:101A70008842704707D710F5000F58BF11F5000FC7
:101A800015D488427047894270471CF5000F04D571
:101A9000BCF5000FF7D5814270474FF0807C1CEBFE
:101AA000400F38BF1CEB410F01D28142704710B587
:101AB00000F089F8922449004FF000504FF0805117
:101AC000FFF78CBF4FF47F0C1CEAD0121EBF1CEA3C
:101AD000D11392EA0C0F93EA0C0F00F0478090EAC2
:101AE000010F48BF42F480724FF0004C4CEA0020D6
:101AF0004CEA012102EB0302A0FB0113A2F5000254
:101B0000002918BF43F001035B0028BF4FEA3303ED
:101B100042EB22425FEA132C4CEBC2502EBFBCEBCF
:101B2000436FB2F57C0F70474FEA036CBCF1004F76
:101B300008BF20F00100B2F57C0F38BF70470BD50D
:101B400082F0FF0212F5803FC8BF704700F1C0402D
:101B5000D8BF00F00040704700F5000C5FEA4C0C65
:101B600048BF7047B0F1C04000F073B890EA010F71
:101B70000CEAD11348BF42F48072624538BF634516
:101B800004D280EA010000F00040704710B500F078
:101B90001AF800BF8900013E00F007B800F009B84C
:101BA0005FEA410C5FEA1C6C08D080EA010000F09B
:101BB00050B85FEA400C5FEA1C6CF6D14FF0004071
:101BC000A0F5800070470EF1020E2EF0030E5EF8B5
:101BD000044B244204D44FEA4102B2F17F4F11D8A2
:101BE0004FEA4003B3F17F4F0CD80ED14FEAD07CBF
:101BF000B2F17F4F0CEB4C0C0CF1020C08BF4CEB1C
:101C0000D17C04E04FF0080C01E04FEAD17C0CEBF2
:101C10004C0324FA03F404F00704B4F1040C06D2D4
:101C20000EEB840CBDE810404CF0010C6047DFE87F
:101C30000CF0070802024FF00040A0F5800010BD34
:101C40000846420018BFD2F1807288BF00F0004001
:101C500010BDFF2141EAD050C005704751EA000C89
:101C600000F113801CF5000F58BFBCF5000F01D424
:101C70008142704707D711F5000F58BF10F5000FCC
:101C800015D481427047894270471CF5000F04D576
:101C9000BCF5000FF7D5884270474FF0807C1CEBF5
:101CA000410F38BF1CEB400F01D28842704780EAD9
:101CB000010081EA000180EA0100FFF7F8BE0000A0
:101CC00090EA010F48BF81F000413FF52CAE421A67
:101CD00004D882F00042A0EB020011444FEAD05237
:101CE0004FF07F4C1CEA410FA2EBD15318BF9CEA86
:101CF000026F4AD04FF0004C4CEA00204CEA012120
:101D000021FA03FCB0EB0C0C0FD412F0FE0F36D00E
:101D10005FEA4C001DD5001240EBC25038BF70473F
:101D20001CF03F0F18BF70470BE0A2F101025FEA01
:101D30001C2040EBC25038BF70471CF07F0F18BF0B
:101D40007047C3F12003994014BF401E20F00100EA
:101D5000704780084FEA122308BF7047B0FA80FC32
:101D6000A2EB0C02CCF1280C60FA0CF093EA122FD3
:101D700004BF00EBC25070474FEAC3707047130AAC
:101D80005FEADC1008BF7047F6E79CEA026F04D0F8
:101D900010EA5C0F08BF0020704710B5FFF713FF73
:101DA00040DFF63E81F0004070470203040506075D
:101DB00008090B0C0D0E0F10111213151617000049
:101DC000E01D000000000010500000006401000051
:101DD000301E0000500000100817000080010000B5
:101DE00000000000000000000000000000000000F3
:101DF00000000000010000000000000000000000E2
:101E000000000000000000000000000000000000D2
:101E100000000000000000000080254101000000DB
:101E200000000000000000000000000000000000B2
:04000005000001C531
:00000001FF
